:020000040800F2
:1000000000000824B9110008CD100008CF10000826
:10001000D1100008D3100008D5100008000000001F
:10002000000000000000000000000000C18A00087D
:10003000D710000800000000518B0008078400085A
:100040000912000809120008091200080912000824
:100050000912000809120008091200080912000814
:100060000912000809120008091200080912000804
:1000700009120008091200080912000809120008F4
:1000800009120008091200080912000809120008E4
:1000900009120008091200080912000809120008D4
:1000A00009120008091200080912000809120008C4
:1000B00009120008091200080912000809120008B4
:1000C00009120008091200080912000809120008A4
:1000D0000912000809120008091200080912000894
:1000E00009120008091200080000000009120008A7
:1000F0000912000809120008091200080912000874
:100100000912000809120008091200080912000863
:100110000912000809120008D91000080912000885
:100120000912000809120008091200080912000843
:100130000912000809120008091200080912000833
:100140000912000809120008000000000000000069
:100150000912000809120008091200080912000813
:100160000912000809120008091200080912000803
:100170000912000809120008091200080000000016
:1001800009120008091200080912000809120008E3
:1001900009120008091200080912000809120008D3
:1001A000E510000809120008F11000080912000803
:1001B00009120008091200080912000809120008B3
:1001C00009120008091200080912000809120008A3
:1001D0000912000809120008091200080912000893
:1001E0000912000809120008091200080912000883
:1001F0000912000809120008091200080912000873
:100200000912000809120008091200080912000862
:100210000912000809120008091200080912000852
:10022000091200080912000809120008FD10000850
:100230000912000809120008091200080912000832
:100240000912000809120008091200080912000822
:100250000912000809120008091200080912000812
:100260000912000809120008091200080912000802
:1002700009120008091200080912000809120008F2
:100280000912000809120008091200080000000005
:08029000091200080912000820
:1002A00010B5054C237833B9044B13B10448AFF3B0
:1002B00000800123237010BD1C01002400000000F9
:1002C0009CA2010808B5034B1BB103490348AFF3D7
:1002D000008008BD00000000200100249CA201084D
:1002E00001F0FF01102A2BDB10F0070F08D010F8E7
:1002F000013B013A8B422DD010F0070F42B3F6D1EB
:10030000F0B441EA012141EA014122F007047FF003
:1003100000070023F0E80256083C85EA010586EA5A
:10032000010685FA47F5A3FA87F586FA47F6A5FA96
:1003300087F68EB9EED1F0BC01F0FF0102F00702A2
:1003400032B110F8013B013A83EA010313B1F8D14D
:100350000020704701387047002D06BF354603382E
:10036000073815F0010F07D1013015F4807F02BF67
:10037000013015F4C03F0130F0BC0138704700BFB8
:100380000149002009F0D0BC0D190008F0B59DB05E
:100390004C22002109A818F05DFF2022002101A8AD
:1003A00018F058FF042005F095FF002300932A4B16
:1003B0009A6942F440429A619A6902F4404200927A
:1003C000264AD16A41F00101D162D26A02F00102EB
:1003D0000092009A9A699104FCD5214A032740258E
:1003E0000224936A082609A823F0030343F00203BA
:1003F00093624FF4803305221894CDE909730123E9
:10040000CDE90C35A023CDE914230023CDE9124416
:10041000CDE91644CDE919631B9306F049FA08B1FA
:1004200072B6FEE73F232146CDE901374FF48063E2
:10043000CDE9030601A8CDE90555CDE9073506F05C
:10044000B7FD014608B172B6FEE74FF4802206F010
:10045000C1FC1DB0F0BD00BF0048025800040058A8
:10046000004402582DE9F041BAB0102200210124C5
:100470002DA8042518F0EEFE04F0BCF94FF0104151
:10048000B74B2DA8ADF8B4403094CDE92E1304F04D
:10049000CFF91A232DA88DF8B5408DF8BC3004F0A3
:1004A000C7F902232DA88DF8C2408DF8B5304FF062
:1004B00050432E9318238DF8BC3004F0B9F9032370
:1004C0002DA88DF8B5304FF010532E9312238DF8D0
:1004D000BC3000238DF8C03004F0AAF94FF08053EF
:1004E0002DA88DF8B5502E9311238DF8BC3004F053
:1004F0009FF905232DA88DF8C0408DF8B530994B94
:100500002E930E238DF8BC3004F092F9284604F0A7
:100510007FF9954B5A6912F4003211D1BFF34F8F16
:10052000BFF36F8FC3F85022BFF34F8FBFF36F8FAE
:100530005A6942F400325A61BFF34F8FBFF36F8F95
:10054000894A536913F4803323D1C2F88430BFF34E
:100550004F8FD2F8803043F6E074C3F3C900C3F381
:100560004E335B0103EA0406014646EA8175013910
:10057000C2F86052F9D2203B13F1200FF2D1BFF341
:100580004F8F536943F480335361BFF34F8FBFF3F1
:100590006F8F4FF48033754D2C6814F4004400F0D5
:1005A000A982013BF8D172B6FEE772B6FEE703F00E
:1005B000B1FD404603F0FCFD034608B172B6FEE70C
:1005C0006B486C4A83610562C0E90027C0E90243B9
:1005D000C0E9044305F092FF08B172B6FEE72DA909
:1005E0008DF8B4708DF8B5408DF8B65003F0D8FB97
:1005F00008B172B6FEE703F07FFB034608B172B69E
:10060000FEE75D484FF44032DFF878E1C0E902438D
:10061000C0E900E204F096F9054608B172B6FEE7BB
:1006200002463146554805F02FF8142004F064F8CE
:1006300031462246514805F027F80A2004F05CF8BC
:100640002422294617A8109518F004FE18222946DE
:1006500011A84B4E18F0FEFD342229462DA818F0A3
:10066000F9FD29462C2220A818F0F4FD4FF0A043F4
:100670004FF0630C0EA93046C6E900350423C6E9E5
:1006800002340523CDE90EC304F0A8FA08B172B60E
:10069000FEE7CDE91740CDE91900CDE91B00CDE912
:1006A0001D001F9017A9304604F0C2FC08B172B6B5
:1006B000FEE721231C260F2711A93148CDE911633C
:1006C0001923CDE913730023CDE9153304F073FC2E
:1006D00008B172B6FEE70421294804F05BFC08B1BA
:1006E00072B6FEE742F21071254804F029FE014679
:1006F00008B172B6FEE7224804F00DFA08B172B6EE
:10070000FEE74FF480784FF400734FF480624FF4AB
:1007100080514FF480404FF400344FF40025CDE970
:100720002D834FF400634FF00208CDE92F234FF4DF
:100730000053CDF8E480CDE931134FF480332DA977
:10074000CDE933034FF480230D48CDE935434FF015
:100750008073CDE9375304F0E9FBA8B172B6FEE728
:100760001B0000030000041000ED00E000440258EC
:10077000BC020024005000529001002400180258CE
:10078000F80100240010005205234FF4C877012619
:10079000209027902A96CDE921371023CDE92330E8
:1007A0008023CDE925000DEB0301CDE92830BE48BB
:1007B00004F04AFB014608B172B6FEE7BA4804F0FD
:1007C00032FB044608B172B6FEE70146342220A887
:1007D000B64D18F03FFDB6484FF000434FF4C97CCA
:1007E00040F2931EAC86C5F8208085F83640C5E9F6
:1007F00000034FF080432846C5E902344FF4F173FB
:10080000C5E909C340F2E313C5E90444C5E9064854
:10081000C5E90BE305F09AFB08B172B6FEE7FF22CB
:100820004FF4C0614FF4F0732290ADF8B0008DF832
:10083000B2002B93CDE925200722CDE927124FF0F6
:10084000504220A9CDE92007CDE9292702462846B4
:10085000CDE9233605F046FC044608B172B6FEE742
:100860002A689148936923F00103936104F046FCE0
:100870009049914B9148CB60914B0C804B60914BD0
:100880008B6003F02DF8324621468C4802F084FC40
:100890002823152221468448009404F062FC2DA9E7
:1008A00081483794CDE92D44CDE92F44CDE9314439
:1008B000CDE93344CDE9354404F038FB4FF44871B9
:1008C0002246284605F03CFC2A68936943F0010360
:1008D000936100F09AFC07F0A3FD7B4A21467B4818
:1008E00007F0CAFD7A4B186007F0ACFDFEE7142252
:1008F00000212DA8002518F0ADFCD4F8E03000222E
:100900004FF4805143F48073724803270826C4F8DB
:10091000E030D4F8E03003F480730493049BD4F8FF
:10092000E03043F04003C4F8E030D4F8E03003F0A6
:1009300040030593059BD4F8E03043F01003C4F85E
:10094000E030D4F8E03003F010030693069BD4F8AF
:10095000E03043F08003C4F8E030D4F8E03003F036
:1009600080030793079BD4F8E03043F00403C4F8F6
:10097000E030D4F8E03003F004030893089BD4F887
:10098000E03043F40073C4F8E030D4F8E03003F40E
:1009900000730993099BD4F8E03043F00803C4F8CE
:1009A000E030D4F8E03003F008030A930A9BD4F84F
:1009B000E03043F00103C4F8E030D4F8E03003F055
:1009C00001030B930B9BD4F8E03043F02003C4F8F1
:1009D000E030D4F8E03003F020030C930C9BD4F803
:1009E000E03043F00203C4F8E030D4F8E0300124F2
:1009F00003F002030D930D9B04F046FE0022082134
:100A0000354804F041FE4FF480532DA93148CDE91B
:100A10002D34CDE92F5704F0A9FC4FF48072022346
:100A20002DA92E483195CDE92D23CDE92F5504F080
:100A30009DFC2DA92848CDE92D64CDE92F4704F070
:100A400095FC2748274B858003600462C0E9055563
:100A500003F01AFF034600287FF4A7AD2249402582
:100A600022480A6822F001020A602DA9204A836206
:100A7000C0E900232022C0E904258022C0E9023316
:100A8000C0E90623C0E908331023CDE92D33CDE9B1
:100A90002F33CDE93133339307F0E6F98046002850
:100AA0003FF485AD72B6FEE7F8010024140200247D
:100AB0000010005038010024C93C000848010024FF
:100AC000411600087916000804A301080F12000857
:100AD000680100240024025800180258000002583F
:100AE0006C010024004C025800400052080300240E
:100AF0004041005203F0C0FDFFF748FCD5F8E0305C
:100B0000204643F00073C5F8E030D5F8E03003F03C
:100B100000730393039B04F0BDFD2146204604F0BF
:100B2000C7FD054C4FF48033226812043FF5DFAE59
:100B3000013BF9D172B6FEE7004402580268034B4C
:100B40009A4201D103F0C6BD704700BF00100040BB
:100B500072B6FEE70A4B82B00F216FF00100D3F8A6
:100B6000F42042F00202C3F8F4200022D3F8F4305B
:100B700003F002030193019B02B003F0E7BD00BF45
:100B800000440258026882B0094B9A420DD1A3F585
:100B90000063D3F8E02042F40022C3F8E020D3F849
:100BA000E03003F400230193019B02B0704700BFC3
:100BB000004C02580F4B07B502689A4217D10E4BF2
:100BC00007215A20D3F8D42042F01002C3F8D420D1
:100BD0000022D3F8D43003F010030193019B03F0FB
:100BE000B5FD5A2003B05DF804EB03F0E1BD03B09E
:100BF0005DF804FB001000520044025810B5B8B074
:100C000004461422002103A818F024FBC02200216E
:100C100008A818F01FFB2368B3F1A04F36D14FF09E
:100C2000806308A8089306F049FC08B1FFF790FF1D
:100C3000174B002403A91748D3F8E42042F0100210
:100C4000C3F8E420D3F8E42002F010020192019AE4
:100C5000D3F8E02042F40072C3F8E0200422D3F875
:100C6000E03003F400730293029B0223CDE90323D7
:100C70000D23CDE90544079304F078FB7B20224641
:100C8000072103F063FD7B2003F092FD38B010BD17
:100C9000004402580024025810B5B2B00446C022E5
:100CA000002102A818F0D6FA2268174B9A4229D1DF
:100CB0004FF00053052115200293A123CDE90B131A
:100CC0000223CDE90D334FF40063CDE90F0302A8F1
:100CD00006F0F4FB08B1FFF73BFF0C4B582007214F
:100CE000D3F8E42042F00802C3F8E4200022D3F84D
:100CF000E43003F008030193019B03F027FD582023
:100D000003F056FD32B010BD0010005000440258F0
:100D1000F0B5BDB004461422002107A818F09AFAD5
:100D2000C02200210CA818F095FA2268524B9A4272
:100D300040F09F804FF000730CA80C9306F0BEFBB0
:100D400008B1FFF705FF4D4B022500240926D3F813
:100D5000D42007A94A480A2742F48042C3F8D42085
:100D6000D3F8D42002F480420192019AD3F8E02013
:100D700042F04002C3F8E020D3F8E02002F0400245
:100D80000292029AD3F8E02042F02002C3F8E02059
:100D9000D3F8E02002F020020392039AD3F8E02077
:100DA00042F08002C3F8E020D3F8E02002F0800295
:100DB0000492049AD3F8E02042F00202C3F8E02043
:100DC000D3F8E02002F002020592059AD3F8E02061
:100DD00042F00802C3F8E020D3F8E03003F0080343
:100DE0000693069B4FF48443CDE90735CDE90944CA
:100DF0000B9604F0BBFA402307A921480B97CDE9D5
:100E00000735CDE9094404F0B1FAC02307A91D480C
:100E10000B96CDE90735CDE9094404F0A7FA4FF464
:100E2000007307A917480B97CDE90735CDE90944A9
:100E300004F09CFA0C2307A913480B96CDE907355B
:100E4000CDE9094404F092FA042307A90F480B9650
:100E5000CDE90735CDE9094404F088FA4FF4006381
:100E600007A90B480B96CDE90735CDE9094404F0F5
:100E70007DFA3DB0F0BD00BF005000520044025862
:100E80000018025800140258001C025800040258AE
:100E9000000C0258F0B5B7B00021142201A818F0D8
:100EA000D9F9394B196800296BD1012207A81A60BA
:100EB000BC2218F0CFF94FF0807306A8069306F015
:100EC000FDFA08B1FFF744FE304B02270026032548
:100ED000D3F8D4200C2401A92D4842F48052C3F841
:100EE000D420D3F8D430059403F480530093009BAE
:100EF00040F2FF63CDE90365CDE9013704F036FA2E
:100F00004FF6837301A923480594CDE90137CDE954
:100F1000036504F02BFA4FF47F4301A91E480594A2
:100F2000CDE90137CDE9036504F020FA48F2311329
:100F300001A91A480594CDE90137CDE9036504F00C
:100F400015FA4CF2037301A915480594CDE9013750
:100F5000CDE9036504F00AFA4FF63F0301A91148F1
:100F60000594CDE90137CDE9036504F0FFF90D23C0
:100F700001A90D480594CDE90137CDE9036504F0D9
:100F8000F5F937B0F0BD00BF40030024004402581B
:100F90000020025800100258001C02580018025885
:100FA000000C0258001402580008025808B5184BEB
:100FB0001A6862BB012240F2FF6116481A60164AA5
:100FC000D2F8D43023F48053C2F8D43004F0BAFA03
:100FD0004FF68371114804F0B5FA4FF47F41104881
:100FE00004F0B0FA48F231110E4804F0ABFA4CF2BA
:100FF00003710D4804F0A6FA4FF63F010B4804F0C8
:10100000A1FA0D210A48BDE8084004F09BBA08BDCA
:101010003C030024002002580044025800100258EB
:10102000001C025800180258000C02580014025804
:10103000000802580F2810B504468AB002D90120D2
:101040000AB010BD01460022362003F07FFB362097
:1010500003F0AEFB184B694602A81C60174BD3F88F
:10106000E82042F01002C3F8E820D3F8E83003F09B
:1010700010030193019B06F007F9079BC3B906F023
:10108000DFF80F4C0F4B236040F2E733E3600E4B69
:10109000B0FBF3F001380023606020462361A360B9
:1010A00007F0E2F80028CAD1204606F085FFC7E71E
:1010B00006F0C6F84000E4E754000024004402585B
:1010C000440300240010004040420F00FEE7FEE70A
:1010D000FEE7FEE7FEE77047014806F0AFBF00BF3E
:1010E00044030024014804F0A0BF00BF1402002400
:1010F000014803F066BC00BF90010024014803F0E2
:1011000020BE00BFF80100240120704708B518F088
:1011100047F8162303604FF0FF3008BD08B518F0FC
:101120003FF816230360FEE770B50D4614460E46E1
:10113000731B9C4201DC204670BDAFF3008006F8B3
:10114000010BF5E770B50D4614460E46731B9C4225
:1011500001DC204670BD16F8010BAFF30080F5E707
:101160004FF0FF3070474FF4005300204B60704742
:1011700001207047002070470B4A0346116810B5E4
:1011800009B90A491160106809490A4C0344091B4E
:101190008B4206D918F004F80C2303604FF0FF309F
:1011A00010BD1360FCE700BF9003002478B1002459
:1011B0000000082400100000DFF834D003F0ECF940
:1011C0000C480D490D4A002302E0D458C4500433A2
:1011D000C4188C42F9D30A4A0A4C002301E0136078
:1011E0000432A242FBD317F0F3FFFFF73BF970473D
:1011F00000000824000000241C01002470DA01080B
:101200001C01002478B10024FEE700F011BE00F0BC
:101210007FBE4068704741607047511A01EB53012F
:10122000B1FBF3F070470000024BC0681B685B6ABB
:1012300058437047940300247047000037B51E4A96
:101240004FF0804105464FF0FF30D2F8E83043F0D0
:101250000103C2F8E830D2F8E83003F0010301934B
:10126000019B164B19600021D86019619960596083
:1012700001215961D369102203F0700392FAA2F29E
:10128000B2FA82F2D3400E4AD35C83B905F0B6FFBE
:10129000044605F0EDFDB0FBF4F0E860074806F009
:1012A000E3FF064803B0BDE8304006F04BBE05F052
:1012B000C7FF4400EDE700BF004402589403002438
:1012C00024B2010810B50446102117F008FF20468B
:1012D00010BD38B5036804461A6931B18568904776
:1012E00063685B1B1844606038BD9047A060FBE7F3
:1012F000704710B50446042117F0F1FE204610BDDA
:1013000008B50E4B4FF44872002019684FF4F07383
:10131000C1E900230C23C1E9023003F049F8084B6E
:1013200010B901221A7008BD1B78002BFBD1054BA8
:101330002C21054A054817F001FF00BFF0030024E7
:10134000EC03002450A3010863A301088DA3010846
:10135000F8B50A4B0F4616461D7815B900252846E4
:10136000F8BD074C0020214603F0B6F82368002B97
:10137000F4D063683B60A3683360F0E7EC030024BB
:10138000E00300247047704770477047012380F8DE
:10139000741080F875307047002070474164003940
:1013A000024B18BF01211970704700BFF3AE002433
:1013B00000207047836B0BB10846184770474FF603
:1013C000FF707047406803689B691847014B1868B5
:1013D000704700BFF4030024704700F01BBE00F00C
:1013E000C7BD00F031BE00F023BE00F0C9BD10B58E
:1013F00004460AF0BDFA23682046D3F8AC30BDE8B5
:101400001040184709F040BC10B504467C2117F085
:1014100066FE204610BD0000024B00221A7009F043
:101420006FBC00BF0C00002410B5044609F074FC2A
:1014300094F84B3013B1024B01221A7010BD00BF5B
:101440000C00002438B50446FFF79CFF074D2046EA
:1014500000F097FD0023284684F84A30FFF7EEFE9F
:101460000123256184F86C3038BD00BFFC030024E3
:101470000368044607B5D3F88030984723682046B0
:101480009B6F984700F0A6FA236820461B6F984789
:101490000021292315220548009103F062FE00F087
:1014A00099FA236820461B6F9847F8E7F801002453
:1014B00090F877301BB1406803681B6818471846DE
:1014C0007047000090F834100D4B10B590F8744040
:1014D0001A788C4209D03AB90A490B4A088814880C
:1014E000108001220C801A7010BD002AFCD0064A20
:1014F0000449148808880C8010800022F3E700BF9C
:10150000ECAE0024EAAE0024E8AE002408B5094B96
:101510001B888B4203D8084B1B88934205D9074B85
:101520009E21074A074817F009FE074B1980074B11
:101530001A8008BDE8AE0024EAAE0024FCA301082E
:101540005FA40108A2A40108EEAE0024F0AE0024BE
:1015500070B50D4619460B4B1D6035B90A4B40F26C
:10156000BB210A4A0A4817F0E9FDC0E90F52003AC8
:10157000084B18BF01221A700368BDE87040D3F809
:101580008C301847F4030024F5A401082DA50108A8
:10159000A2A40108F2AE0024C0E90112C3604FF416
:1015A00080720023C0E912231D4A038580F82A3087
:1015B000C3620386036680F86C300367C0E91923B1
:1015C0004FF080724267012270B5C0E90433BDF864
:1015D0001050BDF81460C0E90633C0E90833C0E913
:1015E0000E33C0E91033C0E91433C0E9163380F874
:1015F0007820B5420B4A10600B4A15800B4A1580C3
:1016000028BF00250A4A38BF01251680094A80F8FC
:1016100034501680084A1370084B036070BD00BF39
:1016200001000001F4AE0024E8AE0024EEAE002478
:10163000EAAE0024F0AE0024ECAE002484A501083C
:10164000012B13B50ED8D35C152200930B4601462F
:10165000084803F086FD18B16FF0070002B010BD16
:101660000020FBE7CDE9001201463922014803F0D2
:1016700089FDF0E7F80100241FB5CDE9011206212C
:1016800000910146054803F0DDFD002814BF6FF00E
:101690000700002005B05DF804FB00BFF80100243E
:1016A00030B585B00C4C0223152503AA0021204635
:1016B0008DF80C30019244228DF80D5000923922A1
:1016C00003F060FD002135232A462046009103F0F7
:1016D00048FD05B030BD00BFF801002408B5FFF794
:1016E000DFFF0C4B02221B68C3F810240122C3F851
:1016F0001024D3F8082442F00102C3F80824D3F8D8
:10170000082442F00202C3F808240322024B5A6361
:1017100008BD00BFF801002400100050074B07B5BA
:10172000197839B9012206481A7029231522009127
:1017300003F017FD03B05DF804FB00BF0C040024A8
:10174000F8010024064B07B501932A233922002112
:1017500000930423034803F015FD03B05DF804FB78
:1017600004000024F8010024064B07B501932A2346
:101770003922002100930423034803F003FD03B042
:101780005DF804FB08000024F801002438B5144D6E
:1017900004460020FFF7F7FD2A6892F8663001330F
:1017A00082F8663000F00AF90E4B2A6819781B7827
:1017B00082F84A1073B10C4D2B7803F0FF024BB93D
:1017C0000A4B1A60FFF7BEFF204603F0BAFC012364
:1017D0002B7038BD0020BDE83840FFF7D5BD00BFF5
:1017E000F4AE00240C0000240D040024F8030024AF
:1017F0002DE9F0433F4E85B004463378002B76D078
:101800003D4DDFF80481D5F800903C4FB9F1000F51
:1018100039D1012002F070FF2368CDF80090D3F891
:101820000424D8F8001022F00802386801F1840678
:10183000C3F80424D3F8042402F008020092009AAA
:101840002F4A1288520802EB42020244B2624A6AEC
:1018500042F001024A62CDF80490D3F8042442F029
:101860000802C3F80424D3F8043403F008030193F6
:10187000019BFFF779FF012320462B6005B0BDE8EF
:10188000F04303F05EBC0368002538680295D3F886
:10189000042422F00802C3F80424D3F8042402F03C
:1018A00008020292029AD8F80020C2F8AC0028463A
:1018B000516A41F0010151620395D3F8042442F0CA
:1018C0000802C3F80424D3F8043403F00803039394
:1018D000039BFFF759FDFFF721FF0A4B357018688E
:1018E00028B103681B6A05B0BDE8F043184705B08E
:1018F000BDE8F0830D040024F8030024F403002461
:10190000EEAE0024F4AE002414020024014608B513
:10191000034B186801B101210AF044F8012008BD09
:10192000F4AE0024034B00225A609A60024A1A6007
:10193000704700BFFC03002430A3010801210022EE
:1019400008B5084606F0E1FD0A4B186028B90A4BB5
:1019500028210A4A0A4817F0F1FB0022042101203D
:1019600006F070FE074B186018B9074B2C21034A8C
:10197000F0E708BD1404002454A601089DA6010840
:10198000CCA601081004002423A70108024B4FF045
:10199000FF31186806F003BE14040024014B1868D8
:1019A00006F028BE14040024024B0021186806F03B
:1019B000F6BD00BF14040024FFF7F0BF0023034866
:1019C00003491A46006806F078BE00BF10040024E0
:1019D0001000002413B50023074C01A91A46206803
:1019E00006F09BFE4FF0FF33002201A9206806F0AD
:1019F00094FE02B010BD00BF1004002403685B6CAD
:101A000018470120704703689B6A184740F2EF307F
:101A100070470000054B4FF080620360044BC3F831
:101A20008820BFF34F8FBFF36F8F7047CCA801089A
:101A300000E100E010B504464FF45A61FFF7EAFFF9
:101A4000204617F04CFB204610BD00000F4B82B023
:101A5000D3F8D42042F01002C3F8D420D3F8D42015
:101A600002F010020192019ADA6F42F01002DA6776
:101A7000DA6F22F01002DA67054B064A1A62064B4B
:101A80004FF080629A6002B0704700BF0044025875
:101A9000900100249D1A000800E100E0024B1B6841
:101AA000586803685B691847F4AE002470B50446B3
:101AB0000A4B0C3000262546602260602672667252
:101AC00045F8203B29460AF0D3F804F55A63EE6046
:101AD0002435AB42FBD1204670BD00BFCCA8010825
:101AE00008B50B290BD8DFE801F01206100A0A0A24
:101AF0000A0808080808012008BD0520FCE7054B76
:101B00006621054A054817F019FB0020F4E702207A
:101B1000F2E700BF65A7010880A70108CAA701086E
:101B200008B50A2909D8DFE801F010060E080808F0
:101B3000080606060600012008BD054B8721054A58
:101B4000054817F0FBFA0020F6E70220F4E700BF93
:101B500065A701081FA80108CAA701082DE9F843D5
:101B60004F7F0C4681463946FFF7BAFF94F81E8036
:101B7000054648464146FFF7B3FF414606464846FC
:101B8000FFF7CEFFA18A628B424B521A1A649A6108
:101B9000228B521A1A61E28A586342EA0142206992
:101BA0005A646268D863DA60216894F81CC080299E
:101BB0004FEA0C6226D010D8202945EA020462D0F0
:101BC000402960D004295ED02A43324B474542F475
:101BD0000032DA615BD0304A40E0B1F5807F07D057
:101BE000B1F5007FF0D142F4003242F0090203E087
:101BF00042F4003242F00A02DA61E2681A625E627E
:101C000058612AE02A43A46842F40032DA61221DB6
:101C10005E625861DA62227842B1012A21D01F4BFC
:101C200040F201111E4A1F4817F088FADA690120B4
:101C3000618822F47F42013922F0100242EA012237
:101C4000DA61144BDA6942F02002DA61DA6992064D
:101C5000FCD410229A600028BDD0134A1A60BDE857
:101C6000F8836288BCF1FF00D96902F1FF3418BF24
:101C7000012021F47F4222F0100242EA042242F0C5
:101C80001002DA61DDE744F40034DC61B7E740F2CA
:101C90000122E3E700100052010201006AA80108D6
:101CA00084A80108CAA701080102020070B50C4609
:101CB000897FFFF735FF124BA58AE18A628B41EAE3
:101CC00005415863521B59642169D9631A64266817
:101CD000E568082E0DD19A611A615862094A207F81
:101CE00042EA0062DA61084A1D625961D9601A60ED
:101CF00070BD0022D8611A61044A9D63F7E700BFF6
:101D0000001000520900010001020200010203005C
:101D1000012070470C2070470C2303FB01000830A2
:101D200070470C2303FB0100083070470120704707
:101D3000B4207047B42303FB010008307047B4237C
:101D400003FB0100083070470120704710207047E6
:101D500000EB01100830704700EB011008307047AD
:101D6000084600F009BB0000034B10B504460360B1
:101D700008F0B2FC204610BD84A9010810B5044645
:101D8000FFF7F2FF1421204617F0A9F9204610BDF5
:101D9000034B10B50446036008F09EFC204610BDBE
:101DA00050A9010810B50446FFF7F2FFBC212046F8
:101DB00017F095F9204610BD034B10B5044603609B
:101DC00008F08AFC204610BD1CA9010810B5044685
:101DD000FFF7F2FF1821204617F081F9204610BDC9
:101DE000084B10B5044640F8E83BFFF7BDFF04F18F
:101DF0002C00FFF7CDFF04F11400FFF7DDFF2046B4
:101E000010BD00BFB8A9010808B50248FFF7E8FFF8
:101E100008BD00BF1C04002410B50446FFF7E0FF16
:101E20004FF41671204617F05AF9204610BD0000F5
:101E30002DE9F34100F02CF90024054600F02CF9BF
:101E4000234601462246284600940EF03BFE254BD1
:101E5000254A2046254D1A6000F0EEFC24480EF07D
:101E6000CDFC2B78BFF35B8FDB0735D4284617F00A
:101E700038F988B31F4C204B04F5807604F1140028
:101E800004F12C0804F1E80723606060C4F80880BE
:101E9000E760266108F022FC184B4046636108F0B9
:101EA0001DFC174B3846E36208F018FC154B04F193
:101EB000FC00C4F8E83000F03BFD224604F1FC01D0
:101EC000304600F02BFD304600F056FA0E4817F071
:101ED00053F9284617F011F90C4802B0BDE8F0415B
:101EE000FFF7B0BA50AF0024941400241804002463
:101EF000140000241C040024B8A901081CA901082E
:101F000050A9010884A90108091E0008181400241A
:101F10000148FFF7ADBA00BF1814002413B50C49EF
:101F20000C4B0D4C08462360FFF7C0FD0B4A1046D2
:101F300011F03CF84FF448734FF4F072044908482C
:101F4000CDE900322346054AFFF726FB02B010BD5B
:101F500078060024ECA301087406002498140024D9
:101F6000181400240148FFF755BD00BF780600246F
:101F7000024B902283F85A23704700BF00E100E033
:101F8000704738B5044608F0D4FE23685D6E0CF047
:101F900069F801462046A84723684FF05041204683
:101FA000D3F8885000231A46A847012384F84A3002
:101FB00038BD08F0CABF00001049002370B5C1F851
:101FC0008430BFF34F8FD1F8803043F6E074C3F311
:101FD000C900C3F34E335B0103EA0406024646EA36
:101FE0008275013AC1F87452F9D2203B13F1200FE7
:101FF000F2D1BFF34F8FBFF36F8F70BD00ED00E0E4
:10200000034B5B69DB0301D5FFF7D6BF704700BF09
:1020100000ED00E008B508F03DFE044B5B69DB0312
:1020200003D5BDE80840FFF7C7BF08BD00ED00E0DD
:10203000044B4FF08062C3F88820BFF34F8FBFF38B
:102040006F8F704700E100E0024B4FF080629A60B2
:10205000704700BF00E100E0704710B5044604215E
:1020600017F03DF8204610BD012908B506D0022919
:1020700008D059B900F02CFC006808BD00F028FC1D
:102080004068FAE700F024FC8068F6E70020F4E7F7
:1020900000487047D8A901080120704713B50024F3
:1020A00051B1036801AA01948DF803409C680DF1B9
:1020B0000303A04702B010BD0846FBE74089704704
:1020C000808970478088704783798088184480B2FF
:1020D0007047C07900F07F007047C079C009704731
:1020E000704710B50446082116F0F9FF204610BDD0
:1020F0007047704700F596730868496803C37047D6
:10210000704770474160704770470000064BC0F849
:102110004401C0F848310023C0F84C3100F5A073E9
:10212000C0F83C31704700BFCD2100080123037285
:1021300070477047704710B441680346C2689B6897
:10214000541001EB6200D20748BF0A595DF8044BF6
:1021500048BFD358184743682BB183682BB9C06870
:1021600000F001007047184670470120704710B515
:1021700004460C2116F0B3FF204610BD10B50446EE
:10218000102116F0ACFF204610BD10B504464FF4E8
:10219000AC7116F0A4FF204610BD08B50BF062FF2D
:1021A000BDE808400CF026BB10B50446D0F83C0151
:1021B00058B10368DB68984738B1D4F83C0103682C
:1021C0009B6898470023C4F83C3110BD2DE9F14FBE
:1021D000D0E9545A0746A86803681B6A9847B32891
:1021E00005D8454BA321454A454816F0A7FF686826
:1021F00003681B6A98470F2803D8424BA4213F4A23
:10220000F2E7E86803681B6A98470B2803D83E4B3F
:10221000A5213A4AE8E7DFF8F8900BF023FF0BF02E
:1022200027FFD9F8000010B10368DB689847D9F898
:10223000000010B103681B689847DFF8D880D8F811
:10224000000010B103685B699847D7F8380110B1F6
:1022500003685B689847D8F8000010B103681B68F2
:102260009847D7F8380110B103689B689847E86829
:1022700000214FF0000B03685B6A9847234B04462C
:10228000C0F804B00360594680F808B0A868036835
:102290005B6A9847064600F077FB68685946036812
:1022A0005B6A98470546314600F054FBC9F8004088
:1022B000C7F83851C8F80060E5B12B1DCAF80030E6
:1022C00030463368C5F808A0DB68F56398472B688B
:1022D00028461B689847214630460DF09FFA236830
:1022E00020461B699847236820465B6901B0BDE81A
:1022F000F04F18472B46E1E7FCA901088AAA01081C
:102300008EAB0108E3AB010886AC010898AD01086B
:1023100034AF002430AF0024F8B5044617460E460B
:102320000BF0C2FE104B00251C6029460F4BC4E980
:1023300054760F4E236030680E4BC4E95255C4E901
:1023400050350368C4E94E559B689847284600F00D
:1023500073FA336893F876200AB1D86C00B998689C
:1023600011F011FF2046F8BD40AF00244CAD01082C
:10237000F4AE002434AD0108064BC0F84401C0F8A7
:1023800048310023C0F84C3100F5A073C0F83C314F
:10239000704700BFCD210008006A7047406A70474F
:1023A00070478B888069DB0A0A6850F82300104464
:1023B000704710B5C2B1137BB3B1547BD27A2402FB
:1023C00004F4E0641443C26998B202EB84021388F7
:1023D0008B4202D192F9020010BD05D801380432B7
:1023E00080B20028F3D1F7E70020F5E710B50446E6
:1023F000282116F074FE204610BD000030B589B0CB
:102400000446BDF850500695BDF84C5005959DF812
:10241000405004959DF83C5003959DF83850029526
:102420009DF8345001959DF8305000950CF056FE03
:10243000064B20462360119BA361129BE361159B11
:102440002362169B636209B030BD00BFBCAD0108BA
:102450000020704781807047C180704701817047BC
:10246000418170477047704770477047704710B49C
:10247000C4880368121B84885B6D091B12B25DF867
:10248000044B09B218474FF6FF7383814FF0FF33B7
:1024900003621368C36110607047704770477047EC
:1024A0007047704790F825201AB190F8242002B1A7
:1024B000186070477047704710B50446B42116F095
:1024C0000EFE204610BD036870B504461B6B154612
:1024D00098472368204629465B6BBDE87040184743
:1024E0002DE9F043044689B00CF0ECFF00252646A8
:1024F0003B4BE5634FF0FF3846F8403BFF22394B3A
:102500002946DFF8E890304684F866202A4625669A
:1025100004F16C07A566C4F89490C4F89C50A4F824
:10252000A450C4F8A850C4E910354FF48073A4F83F
:102530006430A4F890302C4BE3664FF6FF73A4F898
:1025400098304FF47F03C4E92B85C4F8A030C4E968
:102550001255C4E91455C4E91655C4E91C55C4E91B
:102560001E55C4E92055C4E92255FFF7ACFF30469B
:102570004FF44871FFF772FF30464FF4F071FFF7E8
:102580006FFF4FF07F43E4223846A3664FF4B171EA
:10259000FFF799FFC4F89C800DF108083946A4F8AC
:1025A000A050404609F0B2FC04F1A80398E80700E7
:1025B00083E8070006A93846CDF81890ADF81C50FE
:1025C00009F0F6FF201D3146019008F00BF9019843
:1025D000394608F007F9204609B0BDE8F08300BF8E
:1025E00014AE0108ECBE01082CBE0108F4A90108D4
:1025F0007047000030B5154D8DB02C78BFF35B8F60
:1026000014F001041ED1284616F06BFDD0B13F2313
:1026100001220F4907930F4B0F4806930F4B089465
:1026200003940094CDE904430423CDE90944CDE9A2
:1026300001320A23FFF7E2FE094816F09DFD284605
:1026400016F05BFD04480DB030BD00BFF01400244F
:10265000A8D9010838DA0108F414002444DA010882
:10266000F12500087047000030B5154D8DB02C786D
:10267000BFF35B8F14F001041FD1284616F031FD23
:10268000D8B13F2308220F4907930F4B0F480693F9
:102690000F4B089405930123CDE9034302930423D0
:1026A000CDE90944CDE900431423FFF7A7FE09480B
:1026B00016F062FD284616F020FD04480DB030BD2E
:1026C0001C150024B8D901083CDA010820150024A3
:1026D00048DA0108652600087047000030B5154D3E
:1026E0008DB02C78BFF35B8F14F001041ED1284607
:1026F00016F0F7FCD0B13F2301220F4907930F4B8F
:102700000F4806930F4B089403940094CDE90443BB
:102710000423CDE90944CDE901322823FFF76EFEF9
:10272000094816F029FD284616F0E7FC04480DB0CC
:1027300030BD00BF4815002428DA010840DA01083E
:102740004C1500244CDA0108D926000800207047F7
:10275000002070470EB403B503AB002153F8042BDF
:1027600001930CF0EBFA02B05DF804EB03B0704794
:102770000CB407B504AB53F8042B01930CF0DEFA4C
:1027800003B05DF804EB02B070470000436C10B575
:10279000044673B3038F2BB9184BC021184A19484C
:1027A00016F0CCFCC38E00EB43035B8C0BB30DF037
:1027B000CFFD238F012B03D8134BC521134AEEE71E
:1027C000E28E40F63F10531C9BB2092B194688BF7E
:1027D000A3F10A0104EB4101498C814209D10A2B82
:1027E00004EB420228BF0023508C04EB43035884BF
:1027F00051842046BDE810400DF08EBC40AE01086B
:1028000049AE0108F4AE01084CAF01085AAF010807
:102810000DF03ABC10B586B002AC84E806001A464A
:102820000AAB214605930193099B0093089B0AF08C
:102830003AFF06B010BD000038B518BB124B134864
:102840001B681349B3B11A689C681A441C4402609F
:102850005A681A440A600F4B00221A8000F038F8B8
:10286000054600F033F80C4B1C600C4B1D600C4B04
:10287000188007E00B4B03600B4B0B600B4B1C6885
:10288000002CE8D138BD00BF741500247815002451
:102890007C1500248015002444AF00244CAF002494
:1028A00048AF002404000090000000901C0000903D
:1028B000044B1B6853F82100034B1B6803EB4000DB
:1028C000704700BF7C150024781500240120704754
:1028D000004870478415002410B5054CFFF7C4FE6E
:1028E0002060FFF7FBFE6060FFF784FEA06010BD74
:1028F00084150024704710B504464FF4AC7116F0EF
:10290000EEFB204610BD10B50446D0F8540100F08F
:1029100012F82046BDE810400BF024BA10B504466A
:10292000FFF7FAFC014B2046236010BD34B00108CC
:102930000022026070477047704704387047704744
:1029400010B50446102116F0CAFB204610BDA0F1B8
:102950000400F5E70022C1608260044A10B502F16C
:10296000080420320460426010BD00BF78B0010846
:1029700070477047FFF79FBD10B50446B42116F0AD
:10298000AEFB204610BD000010B50446FFF7A8FDC1
:10299000014B2046236010BDA8B0010801234FF46D
:1029A000487200200B8002238B704FF4F073C1E952
:1029B0000123704790F82430012B04BF002380F8D6
:1029C0002430002070470020704710B4046900894B
:1029D000A4465DF8044B604710B4C4680089A4465F
:1029E0005DF8044B60472DE9204300F11808894643
:1029F0000978404600F018F9054699F80410404659
:102A000000F01EF9054499F80810404600F024F93A
:102A1000054499F80C10404600F02AF9054499F84D
:102A20001010404600F030F9054499F81410404663
:102A300000F036F9C54214BF4FF0FF300020BDE86A
:102A4000208313B50C4618300DF1070100F040F952
:102A50009DF80730236002B010BD37B500F11805AE
:102A60000C4601A9284600F0D2F808BB9DF80430B6
:102A7000022B98BF184604232060032128460DEB43
:102A8000030200F0B1F8B0B99DF804309DF80520BC
:102A90001B0203F4706313439DF8072063609DF8E5
:102AA00006301B0203F470631343A36003B030BD10
:102AB0004FF0FF30DFE74FF0FF30F7E7183000F05E
:102AC000A1B80121183000F0F7B80021183000F04B
:102AD000F3B810B590F8243004466BB903689847F2
:102AE0002046FFF7F2FF00384FF0010318BF012026
:102AF00084F82430404210BD0020FCE700207047DD
:102B000030B500F1180585B00C46284601A900F043
:102B10007EF8002845D19DF80430022B98BF184656
:102B200020600C2301AA0321284600F05DF800284C
:102B30003AD19DF804209DF805101302920903F480
:102B40007063E2610B439DF807109DF80A206360F3
:102B50009DF806301B0203F470630B439DF80B10C5
:102B6000E3609DF8083063619DF809301B096362DA
:102B70001302920903F4706322620B439DF80D1057
:102B8000A3609DF80C301B0203F470630B432361B8
:102B90009DF80E30A3619DF80F301B09A36205B0AC
:102BA00030BD4FF0FF30BBE74FF0FF30F7E70000DC
:102BB00090B14A680B6842600A8903600281CA6862
:102BC000C2600A6902614A6900624261044AC261E4
:102BD000044A826103B118474FF0FF30704700BFCD
:102BE000CB290008D929000810B4D0E90140A44637
:102BF0005DF8044B604710B404688068A4465DF833
:102C0000044B604701230A461946FFF7EDBF10B594
:102C10000A460C4601230221FFF7E6FF18B9237884
:102C200003F00F03237010BD07B501238DF80710C3
:102C30000DF107029121FFF7DEFF03B05DF804FB01
:102C400007B501238DF807100DF107029221FFF758
:102C5000D2FF03B05DF804FB07B501238DF8071020
:102C60000DF107029321FFF7C6FF03B05DF804FBE7
:102C700007B501238DF807100DF107029421FFF726
:102C8000BAFF03B05DF804FB07B501238DF8071008
:102C90000DF107029521FFF7AEFF03B05DF804FBCD
:102CA00007B501238DF807100DF107029621FFF7F4
:102CB000A2FF03B05DF804FB07B501238DF80710F0
:102CC0000DF10702A421FFF796FF03B05DF804FBA6
:102CD0000A460123A821FFF787BF000008B501229B
:102CE000074BC3E900219A6000221946DA604FF6CB
:102CF000FF7205F0EFF8003818BF0120404208BD10
:102D00009015002408B50222084BC3E900210121D7
:102D10000022C3E902124FF6FF72194605F0DAF8F5
:102D2000003818BF0120404208BD00BF90150024A4
:102D3000D1E9033210B513434A690B4C13438A6936
:102D40001343CA691343042222600A682146626061
:102D50000122C4E902234FF6FF7205F0BBF80038E8
:102D600018BF0120404210BD9015002408B5084B43
:102D7000C3E9002108210022C3E902124FF6FF72C5
:102D8000194605F0A7F8003818BF0120404208BDD9
:102D90009015002408B505F0BCF8003818BF0120D4
:102DA000404208BD70B50C4609680546FFF796FF1E
:102DB00010B14FF0FF3070BD01F098FC064601F0F5
:102DC00095FC8642FBD021682846FFF79BFF002830
:102DD000EFD12846D4E90012FFF7C8FF0028E8D158
:102DE00021462846FFF7A4FF0028E2D1A168284623
:102DF000FFF7D0FF003818BF01204042DBE74FF05B
:102E000000624FF400534FF48071C0E900234FF487
:102E10008043C0E902314FF4002303610020704772
:102E200000B54FF4407395B04FF040720C930523FA
:102E30000F920222069300230B9206A9139300938C
:102E4000049303926A46CDE90D33CDE91133102383
:102E500002934FF48003059340F20113019341F272
:102E6000883303F094FC002814BF6FF004000020A6
:102E700015B05DF804FB032941F2883230B508BF74
:102E80004FF4407395B018BF4FF480730C4606A9F9
:102E900005460C93062306930023CDE90D330F93CB
:102EA0000B931393CDE9113303F076FB20BB40F273
:102EB00002230222032C4FF4800104902846CDE91E
:102EC00000334FF01003CDE902324FF005036A469C
:102ED000CDE905130CBF4FF040734FF0807306A986
:102EE0000F9341F2883303F052FC00280CBF0020FE
:102EF0006FF0040015B030BD6FF00100FAE7032950
:102F000030B508BF4FF440738FB018BF4FF48073D3
:102F100004460D460693B72300930023CDE90733FB
:102F2000099305930D93CDE90B33FFF7A4FF58B92F
:102F300041F288326946204603F02EFB20B929462B
:102F40002046FFF76DFF08B16FF001000FB030BDF4
:102F500000B54FF480738FB041F288320693352369
:102F6000694600930023CDE90733099305930D9338
:102F7000CDE90B3303F010FB002814BF6FF0010004
:102F800000200FB05DF804FB00B54FF480738FB0E4
:102F900041F288320693F523694600930023CDE978
:102FA0000733099305930D93CDE90B3303F0F4FA3E
:102FB000002814BF6FF0010000200FB05DF804FB83
:102FC00000B591B003290ED8DFE801F00229343FA3
:102FD0004FF4807308930E2302934FF48063099398
:102FE0004FF080730B9308224FF440534FF0004C86
:102FF00002A907924FF0804205930023CDE90DC24C
:103000006A460A930F93CDE9003303F010FC0028C1
:1030100014BF6FF00500002011B05DF804FB4FF401
:10302000807308933D2302934FF4806309934FF01C
:103030000073D7E74FF480730893EE2302934FF4A5
:10304000406309934FF04073CCE74FF4407308930B
:10305000ED23F3E700B591B003290ED8DFE801F0C6
:103060000225303B4FF4807308930C2302934FF4F6
:10307000806309934FF080730B9308236A4602A97B
:1030800007934FF44053059300230A930F93CDE920
:103090000D33CDE9003303F0CAFB002814BF6FF0F5
:1030A0000500002011B05DF804FB4FF48073089315
:1030B000BC2302934FF4006309934FF00073DBE7E6
:1030C0004FF480730893EC2302934FF44063099309
:1030D0004FF04073D0E74FF440730893EB23F3E7CE
:1030E000032941F2883200B508BF4FF440738FB016
:1030F00018BF4FF48073694606936623009300233C
:10310000CDE90733099305930D93CDE90B3303F014
:1031100043FA002814BF6FF0010000200FB05DF8E3
:1031200004FB032941F2883200B508BF4FF4407315
:103130008FB018BF4FF480736946069399230093AC
:103140000023CDE90733099305930D93CDE90B33A4
:1031500003F022FA002814BF6FF0010000200FB026
:103160005DF804FB10B484680088A4465DF8044B45
:10317000604710B444680088A4465DF8044B60477B
:1031800070B5C36804460D4698470646E3689847FD
:10319000831BAB42FAD370BD2DE9374F002300F1FA
:1031A00010088246894693461946DD4A404600F09B
:1031B000ADFB03230446DB4AFF21404600F0A6FB9B
:1031C00000230444D84A1946404600F09FFB0223DE
:1031D0000444D64AFF21404600F098FB00230444F3
:1031E000D14A1946404600F091FB04440023D04ADE
:1031F000C421404600F08AFB0A2104445046FFF7F0
:10320000BFFF0023CB4A40461946CB4D00F07EFB62
:1032100004440023C94AC421404600F077FB0A2138
:1032200004445046FFF7ACFF0023C54A4046194608
:1032300000F06CFB00230444C24AC521404600F064
:1032400065FB00230444C04A1946404600F05EFB7B
:1032500000230444BD4AC521404600F057FB00232B
:103260000444BB4A1946404600F050FB0023044486
:10327000B84AC021404600F049FB00230444A84A54
:103280001946404600F042FB00230444B24AD921CB
:10329000404600F03BFB00230444B04A1946404638
:1032A00000F034FB00230444AD4AC121404600F045
:1032B0002DFB00230444AB4A1946404600F026FB90
:1032C00000230444A84AC121404600F01FFB00230C
:1032D0000444A64A1946404600F018FB0023044463
:1032E000A34AC521404600F011FB00230444A14A33
:1032F0001946404600F00AFB00230444934AC521C6
:10330000404600F003FB00230444854A194640462A
:1033100000F0FCFA02230444974AD821404600F00A
:10332000F5FA00230444954A1946404600F0EEFAA7
:1033300000230444924AC521404600F0E7FA0023E6
:103340000444904A1946404600F0E0FA0023044441
:103350008D4AC021404600F0D9FA002304448B4A2C
:103360001946404600F0D2FA00230444884AC52199
:10337000404600F0CBFA00230444784A1946404600
:1033800000F0C4FA00230444824AC421404600F0FD
:10339000BDFA00230444734A1946404600F0B6FAC9
:1033A000002304447C4AC121404600F0AFFA0023C8
:1033B00004447A4A1946404600F0A8FA022304441D
:1033C000774AB321404600F0A1FA00230444564A4C
:1033D0001946404600F09AFA06230444714ACE2169
:1033E000404600F093FA002304446F4A19464046D1
:1033F00000F08CFA0E2304446C4ACE21404600F0C3
:1034000085FA002304446A4A1946404600F07EFAD1
:103410000E230444674ACE21404600F077FA002389
:103420000444654A1946404600F070FA0A230444F1
:10343000624ACF21404600F069FA00230444604A02
:103440001946404600F062FA002304445D4ACF2149
:10345000404600F05BFA00230444334A19464046D4
:1034600000F054FA0A230444574ACB21404600F0A6
:103470004DFA00230444554A1946404600F046FAE6
:103480000F230444524ACB21404600F03FFA002368
:103490000444454A1946404600F038FA0F230444D4
:1034A0004C4ACB21404600F031FA00230444404A04
:1034B0001946404600F02AFA0A230444464ACB2122
:1034C000404600F023FA002304443B4A1946404694
:1034D00000F01CFA0F230444404ACB21404600F080
:1034E00015FA00230444364A1946404600F00EFA05
:1034F0000F2304443A4ACB21404600F007FA002348
:103500000444384A1946404600F000FA0A230444AD
:10351000354ACB21404600F0F9F90023044465E028
:10352000E9B10108DCB00108EAB1010857B10108AE
:10353000EBB10108ECB10108A0150024EDB10108C0
:10354000EEB10108EFB10108F0B10108F1B10108D5
:10355000F2B10108F3B10108F4B10108F5B10108B5
:10356000F6B10108F7B10108F8B10108F9B1010895
:10357000FAB10108FBB10108C2B10108FCB10108B0
:10358000FDB10108FEB10108FFB1010800B2010858
:1035900001B2010802B2010803B2010804B2010835
:1035A000C4B10108C6B1010805B20108CCB10108D7
:1035B00006B20108DAB1010807B20108DFB001085C
:1035C00008B2010815B20108E9B0010809B2010802
:1035D000F3B0010802B1010811B101081BB10108E3
:1035E0002AB101080AB2010839B10108994A1946FD
:1035F000404600F08BF90A230444974ACB21404609
:1036000000F084F900230444944A1946404600F02F
:103610007DF90A230444924ACC21404600F076F911
:10362000002304448F4A1946404600F06FF90F23E7
:1036300004448D4ACC21404600F068F9002304443C
:103640008A4A1946404600F061F90F230444884A2B
:10365000CC21404600F05AF900230444854A19461B
:10366000404600F053F90A230444834ACC214046E3
:1036700000F04CF900230444804A1946404600F00B
:1036800045F90F2304447E4ACC21404600F03EF920
:10369000002304447B4A1946404600F037F90F23C3
:1036A0000444794ACC21404600F030F90023044418
:1036B000764A1946404600F029F900230444744A2A
:1036C000C521404600F022F900230444714A1946FE
:1036D000404600F01BF9002304446F4AF5214046A0
:1036E00000F014F9002304446C4A1946404600F0E7
:1036F0000DF9002304446A4AC621404600F006F949
:1037000000230444674A1946404600F0FFF80323AB
:103710000444654AFF21404600F0F8F800230444C1
:10372000604A1946404600F0F1F8002304445D4A1F
:103730001946404600F0EAF8102304445B4AE121B0
:10374000404600F0E3F800230444564A1946404638
:1037500000F0DCF804441023554AE221404600F012
:10376000D5F804440023534A1121404600F0CEF816
:10377000782104445046FFF703FDB9F1000F62D0F1
:10378000B9F1020F08D100234B4A3A21404600F01C
:10379000BDF80444C5F80490BBF1010F56D1602375
:1037A0000DF10702362140468DF80730002300F066
:1037B000ADF804440423414A2A21404600F0A6F80B
:1037C000044404233E4A2B21404600F09FF8044461
:1037D000C5F800B000233B4A5121404600F096F85E
:1037E00000230444384A53214046AB6000F08EF871
:1037F00004440023354A5521404600F087F804442C
:103800000023334A5E21404600F080F8002325184B
:10381000304A2921404600F079F800230544214A26
:103820001946404600F072F8054400232A4A2C212C
:10383000404600F06BF8C54214BF4FF0FF30002047
:1038400003B0BDE8308F4B46244A9EE700232B602F
:10385000C0E700BF0BB2010843B10108EAB101089B
:103860004DB1010809B2010859B1010805B20108BA
:1038700068B1010806B2010877B1010807B2010872
:1038800081B1010808B2010890B10108F5B1010841
:1038900016B2010817B2010818B2010819B20108DE
:1038A0001AB20108E9B101089FB10108A2B10108EB
:1038B000B2B101080CB201080DB20108D4B0010880
:1038C000D8B001080FB2010810B2010811B2010806
:1038D00012B2010813B2010814B201080EB20108B5
:1038E00060B14B6843608B688360CB688061C36064
:1038F000044B4361044B0361002070474FF0FF30DD
:10390000704700BF653100087331000810B40468C7
:103910008068A4465DF8044B60470000104A08B573
:103920001368013B13600BB1002008BD4FF48051B8
:103930000C4801F007FE0B484FF4005101F002FE65
:10394000094A0A48D2F8F43023F08003C2F8F43070
:1039500002F09AF80028E7D06FF00700E5E700BF13
:10396000AC150024000C025800440258B41F002477
:103970000023012210B5416004460362C0E902320F
:10398000C0E90433C0E9063302F02CF8014608B15F
:10399000012010BD204602F008FA01460028F7D1A8
:1039A000204602F028FA003818BF0120F1E7000095
:1039B000A34BA4482DE9F04F036093B0A24B1A68C3
:1039C0000092002A40F0CF8001221A6002F0E8F94C
:1039D000002840F0C8809D4D4FF0120802270426B1
:1039E000D5F8E0300DA99A4843F00803C5F8E03057
:1039F000D5F8E03003F008030A930A9BD5F8E030CD
:103A000043F00803C5F8E030D5F8E03003F00803D0
:103A10000B930B9B4FF48053CDE90D38009BCDE900
:103A200010760F9301F0A2FC4FF400530DA98848C3
:103A30001196CDE90D38009BCDE90F3701F096FCCA
:103A4000D5F8F43043F08003C5F8F430D5F8F430FD
:103A500003F080030C930C9BD5F89C3043F080035B
:103A6000C5F89C30D5F89C3023F08003C5F89C3015
:103A700003F0F8FB002870D0764B4FF01008DFF809
:103A8000DC914FF0140A03EB5003B3FBF0F000EBB2
:103A9000400240F6F6130146C2F1FF22A3EB800379
:103AA00002F57F0223EAE373E23202936A4B22EAD1
:103AB000E27B009A1B6896468C46002640F27934D9
:103AC00001960136A44559D900252F46AB4551D85A
:103AD000029CAC424ED390454CD00AFB03F8013314
:103AE000019C09EB080E7F2B49F80820CEE901471D
:103AF0003DD9594A1360584B42F21072574900277A
:103B00001B6803924FF0FF320593430003F1320428
:103B1000C3F5905BA3F511530BF10C0B09940A3B11
:103B20000293059B9F4234D17F2A16D814235A430F
:103B30004A4B99189B580C7C44EA03744B681B054C
:103B400003F470031C438B681B0403F470231C43B1
:103B5000CB681B029BB22343009300993948FFF7BF
:103B600007FF002869D1002013B0BDE8F08F904610
:103B70004FF0010E01370D44102FA7D1102E8C44A9
:103B80009CD101320144102A96D1BEF1000FB0D170
:103B9000B1E70B684FF0000C099C03FB00031C44C9
:103BA000ABEB030504946C00049D0194029C1C443F
:103BB000089441F25C24CDF818C0A5F132060CF14E
:103BC000010CA5422ED9B0EB960F2BD2089C4FF0DA
:103BD000000EDDF810806619DDF8049006F2836AA5
:103BE00041F24704CDF81CE00EF1010EA24512D8B7
:103BF000B8F57A6F0FD340450DD236EA260A28BFB2
:103C0000CA46039CA24506D2069ACDF80CA00A61CA
:103C1000079ACA603A46BEF5807FA9EB03091E44A5
:103C20009844DBD1019CBCF5807F1D44A4EB0304C8
:103C30000194BED10137143173E76FF0070093E7A9
:103C4000001C0058B41F0024AC1500240044025886
:103C5000000C025800CA9A3BB01F0024B015002483
:103C60001FB54FF47A7400920A4601460848CDE920
:103C70000134012301F021FF40B1054802F093F81F
:103C800004280CBF6FF065006FF0030004B010BD96
:103C9000B41F00241FB54FF47A7400920A460146FF
:103CA0000848CDE90134012301F0BEFF40B10548C9
:103CB00002F079F804280CBF6FF065006FF0030084
:103CC00004B010BDB41F002400F010BD094A4FF429
:103CD000407C02604A684260012282608A68C26059
:103CE0000A6802610022C0E905C2C261CA680262B4
:103CF00002F004BC0050005210B588B90A4C0B48C1
:103D0000A37861784BB9FFF7A5F910B16FF0040003
:103D100010BD022300202370FAE7FFF751F9F4E702
:103D20006FF00100F4E700BF00200024BC02002473
:103D3000F8B50C46174628BB174D2B78022B24D01C
:103D4000002A164E08BF1020F060304602F0D6FB65
:103D5000F0B96B78032B0FD1032C05D10123002080
:103D60006C702B70AF70F8BD3046FFF70DF900286E
:103D7000F4D06FF00400F6E7032CEFD13046FFF7E4
:103D8000E7F8F4E76FF00100EDE76FF01900EAE7FC
:103D90006FF00300E7E700BF00200024BC0200240E
:103DA0002DE9F0470D46A4B00446002840F0AC8150
:103DB000034E337833B1002024B0BDE8F08700BF54
:103DC00000200024C24B4FF00409092716A9D3F89C
:103DD000D4204FF040084FF00A0A42F48042C3F862
:103DE000D420D3F8D42002F480420192019ADA6FF1
:103DF00042F48042DA67DA6F22F48042DA67D3F85D
:103E0000E02042F00202C3F8E020D3F8E02002F004
:103E100002020292029AD3F8E02042F04002C3F874
:103E2000E020D3F8E02002F040020392039AD3F896
:103E3000E02042F00802C3F8E020D3F8E02002F0CE
:103E400008020492049AD3F8E02042F02002C3F85A
:103E5000E020D3F8E02002F020020592059AD3F882
:103E6000E02042F02002C3F8E020D3F8E02002F086
:103E700020020692069AD3F8E02042F02002C3F80E
:103E8000E020D3F8E02002F020020792079AD3F84E
:103E9000E02042F04002C3F8E020D3F8E02002F036
:103EA00040020892089AD3F8E02042F08002C3F85A
:103EB000E020D3F8E02002F080020992099AD3F8BA
:103EC000E02042F08002C3F8E020D3F8E02002F0C6
:103ED00080020A920A9AD3F8E02042F04002C3F826
:103EE000E020D3F8E02002F040020B920B9AD3F8C6
:103EF000E02042F04002C3F8E020D3F8E03003F0C5
:103F000040030C930C9B0223CDE9169303231A97CD
:103F1000CDE918036F4801F029FA012316A96E486C
:103F20001893CDF85880CDF868A001F01FFA4FF42F
:103F3000006316A96948169318941A9701F016FAA7
:103F400016A9CDF8589066484FF400791A9701F0F9
:103F50000DFA16A96348CDF85890CDF868A001F085
:103F600005FA082316A95E4816931A9701F0FEF980
:103F7000802316A95B4816931A9701F0F7F916A942
:103F80005548CDF8589001F0F1F916A95548CDF8EB
:103F9000588001F0EBF94FF4804316A94E48169370
:103FA00001F0E4F922460F215C2000F0CFFB5C20F9
:103FB00000F0FEFB11A8FEF722FF6A784A4BCDF80D
:103FC000408053F822300E93119B93FAA3F3002AFA
:103FD000B3FA83F30DA9454808BF1024013B0F94A1
:103FE0000D93FFF773FE002840F0918003213F48B6
:103FF000FFF776F800287CD103213C48FFF791F8C1
:10400000002876D171783948FEF70AFF014600286A
:104010006FD13648FFF764F80146002869D133486C
:10402000FFF77FF80146002863D10123B0702F48C5
:104030003380FEF7F5FE00285BD171782B48FEF740
:104040005EFF002855D14FF44073ADF802001B907D
:1040500041F288321C93852316A916934FF04073C2
:104060001F930223CDE91D00CDE92030CDE92200C8
:104070001E4802F091FA00283BD141F288320DF13E
:1040800002011A4802F024FB98BB71781748FEF72A
:10409000F2FE70BB812341F2883216A913481693B1
:1040A000BDF8023023F0F0031B051B0D43F4004361
:1040B00043F08003ADF8023002F06EFAC8B941F265
:1040C00088320DF10201094802F0A9FA10E000BFA0
:1040D000004402580004025800180258000C02580C
:1040E000001C0258001402581CB20108BC02002433
:1040F00010B16FF004005FE66A782978FFF718FEC8
:1041000000283FF458AEF4E76FF0010054E66FF07A
:10411000030051E610B5044670B9094B0948036025
:1041200003F0CAFE7A2000F051FB0748074B0360FA
:1041300002F0B1F8204610BD6FF00100FBE700BFB0
:10414000404100520C200024402000244000005236
:1041500001221549154B10B5C0E9001282600421F7
:104160002022402488B0C0E903124FF4C072C0E995
:10417000054200224FF40064C0E907244FF4805444
:1041800044629A6207220223CDE90312694407932D
:10419000CDE90132CDE9053303F066FE003818BFE2
:1041A000012008B010BD00BF404100520C20002487
:1041B000F0B505468FB0002840F0DD80714B032735
:1041C00009A97148D3F8D420704C42F48052704E43
:1041D000C3F8D420D3F8D42002F480520192019A7B
:1041E000D3F8D42042F00102C3F8D420D3F8D4206D
:1041F00002F001020292029AD3F8E02042F0080293
:10420000C3F8E020D3F8E02002F008020392039AFA
:10421000D3F8E02042F01002C3F8E020D3F8E02009
:1042200002F010020492049AD3F8E02042F0200237
:10423000C3F8E020D3F8E02002F020020592059AAE
:10424000D3F8E02042F04002C3F8E020D3F8E020A9
:1042500002F040020692069AD3F8E02042F0800273
:10426000C3F8E020D3F8E02002F080020792079A1A
:10427000D3F8E02042F48072C3F8E0200222D3F8A1
:10428000E03003F480730893089B0123CDE90A23EF
:104290000C23CDE90C734CF20373099301F066F81B
:1042A0004FF6837309A93B48099301F05FF84FF675
:1042B0003F0309A93848099301F058F848F2371329
:1042C00009A93648099301F051F84FF6E07309A99E
:1042D0003348099301F04AF840F2FF6309A93148D5
:1042E000099301F043F84FF080414FF0805340F2C2
:1042F000022040F6080234632664C4E90113C4E9CD
:104300000502802320222046A362C4E90723C4E9D2
:1043100003354FF00072244B62622360C4E90B55F1
:10432000C4E90D5501F0B7FF204601F045FF2A46CC
:104330000F217A2000F00AFA7A2000F039FA30468C
:10434000FFF706FFD0B919490823C1E9003740F249
:1043500003630861C1E902303023C1E905304FF43D
:1043600000733046CB61FEF71DFD002818BF6FF0CB
:1043700004000FB0F0BD6FF00100FAE74FF0FF301E
:10438000F7E700BF00440258000C0258AC2000249C
:104390000C20002400100258001402580018025883
:1043A000001C02580020025840000052182100242E
:1043B0002DE9F0470C468CB00646002871D10B68F9
:1043C0005A1EB2F5487F6CD24A68511EB1F5F07F93
:1043D00067D2934228BF1346E2689A4261D870239D
:1043E00054220DF1040A324FDFF8E480DFF8E49044
:1043F000CDE901232F4B06932F4B07932F4B0A93A5
:104400002F4B09932F4B0B935AF8043B06A92848CE
:10441000ADF82030FEF7CCFB18B1012E44D00126B8
:10442000F2E769463846FEF70CFB0028F5D1009B01
:10443000112BF2D103A93846FEF7B0FA224B3846C9
:10444000C8F80070C9F800301B6898470546002876
:10445000E3D1236806A91D4ED8F8000033606368D5
:104460007360A368B360E368F360D9F80030DB6978
:104470009847002802DA6FF004050EE0079B2268D7
:104480003361089B61687361E3681A440B4401322D
:104490000133B2617362C6E9072328460CB0BDE858
:1044A000F0876FF00105F8E74FF0FF35F5E700BF43
:1044B00038210024B13900081D390008953C000856
:1044C000613C0008C93C0008180000246421002455
:1044D000602100248C2100242DE9FF410E46002894
:1044E00051D12A4B01A92A4A1B6810681B699847B9
:1044F000002845DB27490198D1F818C00F6A002829
:104500003AD08B68D1F810801C07D1F814E0DDE9AF
:10451000025242BF2C46154622469C0744BF08F172
:10452000FF34651B5B070C6848BF0EF1FF3305FBCA
:1045300004F448BF9A1A4B6830605343C868B4FB10
:10454000F8F4B3FBFEF364457460B3608CBFA4EB76
:104550000C05ACEB0405BB428CBFDA1BFA1AA8426F
:1045600001D3904205D28C610B62002004B0BDE8FB
:10457000F081C6E901C7F8E7C6E9000CB760F5E7C6
:104580006FF00400F2E76FF00100EFE78C210024E8
:1045900060210024642100242D4BD3F8882042F4AC
:1045A0007002C3F888201A6942F010021A61294A81
:1045B000136803F00F03062B05D8136823F00F03CD
:1045C00043F007031360244B1A6842F001021A609B
:1045D00000221A61214A19680A401E491A600A68B5
:1045E000120705D50A6822F00F0242F007020A609E
:1045F00000221B499A61DA611A6299621949D962EB
:10460000194919635A639963DA6319645A6419681A
:1046100021F4802119601A664FF0B042D2F8E430DC
:1046200043F48043C2F8E430104B1B681B0C1B049E
:10463000B3F1005F03D20E4B0122C3F808210D4BEA
:1046400043F2D2021A604FF00062014B9A60704749
:1046500000ED00E000200052004402587FEDF6EA31
:10466000000202020000FF01800201010010005C54
:10467000008000510040005210B5032000F054F8B3
:1046800002F0F6FB0F49104A8B69C3F30323D35C96
:1046900003F01F03D8408B6903F00F03D35C0B4A70
:1046A00003F01F0320FA03F31360094B1860002086
:1046B000FCF7C0FC044618B9FCF74CFA204610BDC4
:1046C0000124FBE70044025824B201084C000024F6
:1046D00048000024034A044B11681B780B44136004
:1046E000704700BF9021002450000024014B18683F
:1046F000704700BF9021002438B50446FFF7F6FF4D
:104700000546631C1EBF044B1B78E418FFF7EEFF41
:10471000431BA342FAD338BD50000024014B186854
:10472000000C70470010005C07490302CA6803F4DC
:10473000E06322F4E0621204120C134343F0BF63FF
:1047400043F40033CB60704700ED00E0164B30B50A
:10475000DC68C4F30224C4F10705231D042D28BF1F
:104760000425062B4FF0FF338CBF033C002403FAD3
:1047700005F5002803FA04F321EA050122EA030201
:1047800001FA04F141EA02034FEA0313DBB206DB4C
:1047900000F1604000F5614080F8003330BD00F06A
:1047A0000F00024A1354F9E700ED00E014ED00E0B9
:1047B000002808DB0123420900F01F0003FA00F083
:1047C000014B43F82200704700E100E000280DDBB8
:1047D0004309012200F01F00203302FA00F0044ACE
:1047E00042F82300BFF34F8FBFF36F8F704700BFB6
:1047F00000E100E0BFF35F8F044B5A6A22F480327D
:104800005A620022C3F89420704700BF00ED00E018
:10481000064B40F00100C3F894005A6A42F480321B
:104820005A62BFF34F8FBFF36F8F704700ED00E008
:104830004378144A10B5C2F898300178E9B143685A
:10484000C2F89C30C37A047B1B0643EA04730B4313
:10485000817A43EAC143417B43EA8143817B43EA56
:104860004143C17B43EA0143417A43EA0123017A90
:1048700043EA4103C2F8A03010BDC2F89C10C2F850
:10488000A010F9E700ED00E010B5044608B90120DA
:1048900010BD437F03F0FF0213B90277FCF772F9F2
:1048A000022363772379E3B92368134A5A619A682C
:1048B00022F018029A6062792368D2B94FF0FF3271
:1048C0001A6100209A68616922F060020A43A169B6
:1048D0009A609A6822F080020A439A600123637703
:1048E000D6E7D4E90212204600F008F80028E2D00A
:1048F000CDE72269E4E700BFB71DC1041F2310B54F
:10490000013B1CD321FA03F4E407F9D5102A12D095
:1049100004D83AB1082A10D001200BE0182AFBD1A4
:10492000062BF9D800684161836823F018031A4305
:104930008260002010BD072BF3E70F2BF1E7002A60
:10494000EAD1EFE710B50446002836D090F8613080
:1049500003F0FF021BB980F86020FCF72BF902235B
:10496000E069626884F8613023680243A0691968CD
:1049700021F4E02121F040010A431A60596BA2683A
:1049800021F48371024321F001010A43E1685A6373
:104990001A6C120C12040A431A64596BD4E904020B
:1049A00021F44011520542EA005200200A435A63A2
:1049B0000123606684F8613010BD0120FCE7704778
:1049C0007047036870B55E6804461D68F20714D529
:1049D000E90512D51A6822F480721A60426E42F01C
:1049E0000102426601229A60042380F861300023AC
:1049F00080F86030436A03B19847B20616D5AB041D
:104A000014D523681A6822F400521A6020229A6092
:104A1000636E43F002036366042384F8613000236D
:104A200084F86030636A0BB120469847300716D58A
:104A3000290514D523681A6822F400621A60082236
:104A40009A60636E43F004036366042384F8613064
:104A5000002384F86030636A0BB1204698477207E0
:104A60000BD56B0509D5236820461A6822F48062AD
:104A70001A6004229A60FFF7A2FFB00714D5A905B7
:104A800012D523681A6822F400721A6002229A6012
:104A9000636E6366012384F86130002384F860301C
:104AA000236A0BB120469847F20613D5EB0411D5C3
:104AB000236820461A6822F480521A6010229A60F5
:104AC000636E6366012384F86130002384F86030EC
:104AD000FFF776FF70BD2DE9F04107460D461446FD
:104AE0001E46FFF703FE80463B685A6FD2070AD581
:104AF00044EA06240699002044EA014444EA851465
:104B0000DC66BDE8F081FFF7F1FDA0EB080064284A
:104B1000EAD90320F5E7037C012B5CD0002203686F
:104B2000C3F8C420C3F8C820CA07816107D5D3F8E9
:104B3000C4206FEA12426FEA0242C3F8C4208A0717
:104B400005D5D3F8C42042F4F812C3F8C4204A07AC
:104B500005D5D3F8C82042F00102C3F8C8200A07DF
:104B600005D5D3F8C82042F00202C3F8C820CA060F
:104B700005D5D3F8C82042F00C02C3F8C8208A0635
:104B800005D5D3F8C82042F01002C3F8C8204A0661
:104B900005D5D3F8C82042F02002C3F8C8200A0681
:104BA00005D5D3F8C82042F04002C3F8C820CA0592
:104BB00005D5D3F8C82042F08002C3F8C8208A0582
:104BC00005D5D3F8C82042F4F852C3F8C820002312
:104BD00003741846704702207047000073B50D46F5
:104BE0000446002800F0A780437C0BB9FCF706F8C8
:104BF00003236374002300932368D3F8302442F026
:104C00008072C3F83024D3F8303403F080730093FB
:104C1000009BFFF76BFD06462268D2F80C34D904DE
:104C20007AD5D2F8303423F45E3323F4FE73C2F81D
:104C30003034D2F83014D5E90003DB0243EA8003B4
:104C4000A86843EA004301200B43C2F83034002334
:104C50000193D2F8303443F00103C2F83034D2F873
:104C6000303403F001030193019BFFF745FDFFF78B
:104C70003DFD06462368D3F80C24D20555D5D3F85C
:104C8000A02046F2A810616842F00602C3F8A020F6
:104C9000D3F8942022F00302C3F89420D3F8942090
:104CA0000A43E16842F00102C3F89420D3F8A4203B
:104CB00022F00302C3F8A420D3F8A4200A43A16879
:104CC000C3F8A4209A6822F0FF029A609A680A4307
:104CD0001A499A606A68012A38BF01224A43A968C2
:104CE00001F003018A40296841430020B2FBF1F240
:104CF000D3F8181421F03F01C3F81814D3F818148E
:104D00000A43C3F81824C3F8C400C3F8C800012339
:104D10006061A061637406E0FFF7E8FC801B642813
:104D20007FF67AAF032002B070BDFFF7DFFC801B77
:104D300064289FD9F6E70120F5E700BF00093D0090
:104D400070470368D3F80C24D10710B5044608D582
:104D5000D3F80824D20704D50122C3F81024FCF7A5
:104D600015FD2368D3F80C24910709D5D3F808243E
:104D7000920705D502222046C3F81024FCF738FD1F
:104D8000A369002B4ED02168D1F8BC20D1F8C430E3
:104D9000D1F8C0001A40D1F8C83091B2034019B11F
:104DA000616941F00101616112F4F81F03D0626989
:104DB00042F002026261D80703D5626942F0040240
:104DC0006261990703D5626942F00802626113F0DB
:104DD0000C0F03D0626942F010026261DA0603D55B
:104DE000626942F020026261980603D5626942F06E
:104DF00040026261590603D5626942F08002626135
:104E00001A0603D5626942F48072626113F4F85F96
:104E100003D0636943F400736361636913B120468F
:104E2000FFF78EFF10BD037C012B0BD003681A6BBC
:104E300022F003021A631A6B1143196300230374EF
:104E4000184670470220704730B5037C012B6AD0AA
:104E500003680C685A6B42F001025A63D3F80024CD
:104E600022F00102C3F80024D3F8002442F001022A
:104E7000C3F80024DA6822F00302DA60DA68224319
:104E8000DA605A6922F007025A615C69D1E9065278
:104E90002A434D692A434D6822435A611A6922F018
:104EA0000F021A611C692C431C61D3F8004424F0E2
:104EB0000E04C3F80044D3F800248C6842EA45028B
:104EC000C3F800245A6E120C12045A665A6E22431A
:104ED0005A66D3F8002422F0F002C3F80024D3F875
:104EE0000044D1E903252A434D6A2A430D6A896AA1
:104EF0002A432243C3F800249A6E22F001029A66E4
:104F00009A6E0A439A66D3F8082442F00102C3F865
:104F10000824D3F8082442F00202C3F8082400232E
:104F20000374184630BD0220FCE7000030B5037C56
:104F3000012B2AD00268164B946E23409366946E20
:104F4000D1E900352B438D682B43CD682B430D6988
:104F50002B434D692B438D692B43CD692B430D6A40
:104F60002B434D6A2B438D6A2B43CD6A096B2B4330
:104F700023439366936E23F002039366936E0B4371
:104F8000936600230374184630BD0220FCE700BF7F
:104F9000FF80F0FE037C012B0BD00368DA6A22F05D
:104FA0001F02DA62DA6A1143D962002303741846D9
:104FB00070470220704730B5037C012B35D0036861
:104FC000D1E90024944238BF1446D3F8982002F067
:104FD000FC22C3F89820D3F8982042EA04422243E6
:104FE000C3F89820D3F89C2002F40042C3F89C2018
:104FF000D3F89C40D1E90225120642EA05420D6928
:1050000049692A432243C3F89C20D3F8A42022F400
:105010007F42C3F8A420D3F8A42042EA0122C3F8B7
:10502000A42000230374184630BD0220FCE70000D2
:1050300030B5037C012B5CD003680C689A688D68DE
:1050400022F47F429A609A6842EA04224C689A608D
:105050009A6F92B29A679A6F42EA04429A67264A16
:105060009C6F14409C679C6F2C43CD689C67DC6FE1
:105070001440DC67DC6F2C430D69DC67D3F880409B
:105080001440C3F88040D3F880402C434D69C3F8E6
:105090008040D3F884401440C3F88440D3F884405F
:1050A0002C43C3F88440D3F8844024F08074C3F8C0
:1050B0008440D3F884408D692C43CD69096AC3F8D4
:1050C0008440D3F888401440C3F88840D3F888401F
:1050D0002C43C3F88840D3F88C402240C3F88C207E
:1050E000D3F88C200A43C3F88C200023037418469D
:1050F00030BD0220FCE700BF0000FFFF037C82B050
:10510000012B1CD0026800230093516841F001017B
:105110005160516801F00101009100990193D2F8AA
:10512000041441F00801C2F80414D2F804240374F2
:10513000184602F008020192019A02B0704702205C
:10514000FBE7037C012B0AD00268D2F8043443F059
:105150000403C2F804340023037418467047022085
:10516000704737B5057C0446012D09D0012505742B
:10517000069D0095FFF7AFFC0023237403B030BDFC
:105180000220FBE72DE9F84F1C46037C06460F463C
:10519000012B1546DDE90A9852D001230374FFF76D
:1051A000A5FA834631684B6F13F0010A1AD0032C1D
:1051B00020464FF0000228BF032082421DD1A31ACF
:1051C0004244C1F8709013BB013445EA8715184674
:1051D0002202240292B204F47F0415432C43CC66CD
:1051E000337408E0FFF782FAA0EB0B006428D9D9EA
:1051F000032086F810A0BDE8F88F18F802300132BD
:105200004FEAC20C03FA0CF349EA0309D5E7042B71
:105210004FF0000C9E46604628BF4FF0040E12F877
:1052200000804FEAC009013008FA09F886454CEAC7
:10523000080CF4D1A3EB0E037244C1F870C0C2E7AE
:105240000220D8E72DE9F7431E46037C05460C46AD
:10525000012B1746DDF82890DDF830806ED0012351
:10526000022E03740DD9C6F3072337220093F3B23D
:10527000FFF731FC28B1002301202B7403B0BDE8F7
:10528000F083B9F1060F0FD10B9B2A681B0243EA8A
:10529000841444F00604D466FFF728FA0446002E6E
:1052A00027DC00202874E9E7B9F1040F05D1A40137
:1052B0002B6844F00404DC66EEE7B9F1140F08D162
:1052C00098F80010A4012B6844EA012444F0140467
:1052D000F1E7B9F1240FCED198F80110A40198F8A4
:1052E000002044EA01442B6844EA022444F02404E8
:1052F000E1E72A68536F13F010030DD1042E106FED
:10530000324628BF0422D90020FA01F1F9540133B2
:105310009A42F8D11744B61AFFF7E8F9001B64283F
:1053200003D9002303202B74A8E72B685A6F520679
:10533000B5D4D3F8C0309B069DD4B0E702209DE7DA
:10534000037C012B10D00368D3F81C2422F0C06228
:10535000C3F81C24D3F81C2442EA4161C3F81C148E
:105360000023037418467047022070472DE9F74F59
:105370000023DFF8CC914FF0B0440A6832FA03F50D
:1053800002D103B0BDE8F08F4FF0010E0EFA03FE1C
:105390001EEA020200F0BD804E684FEA43084FF05B
:1053A000030C06F003050CFA08FC6F1E6FEA0C0CE8
:1053B000012F34D8876807EA0C0ACF6807FA08F784
:1053C00047EA0A078760476827EA0E0EC6F3001708
:1053D0009F4047EA0E074760C768022D07EA0C0E98
:1053E0008F6807FA08F747EA0E07C76019D14FEA36
:1053F000D30A03F0070B4FF00F0E00EB8A0A4FEAB7
:105400008B0BDAF820700EFA0BFE27EA0E0E0F69EE
:1054100007FA0BF747EA0E07CAF8207001E0032DE0
:10542000DAD1076805FA08F516F4403F07EA0C07D9
:1054300047EA050707606CD0D9F8F45023F003075A
:1054400003F0030C4FF00F0E45F0020507F1B047D3
:105450004FEA8C0CC9F8F45007F58067D9F8F4507E
:1054600005F002050195019D0EFA0CF5D7F80880AC
:1054700028EA050E314DA8424DD005F58065A842B9
:105480004BD005F58065A84249D005F58065A84256
:1054900047D005F58065A84245D005F58065A8424E
:1054A00043D005F58065A84241D005F58065A84246
:1054B0003FD005F58065A8423DD005F58065A8423E
:1054C0000CBF09250A2505FA0CF516F4801F45EADC
:1054D0000E05BD606FEA020725680CBF3D4015430D
:1054E00016F4001F256065680CBF3D40154316F497
:1054F000003F6560D4F884500CBF3D401543F6036F
:10550000C4F88450D4F8805054BF3D401543C4F8CB
:105510008050013331E70025D5E70125D3E7022587
:10552000D1E70325CFE70425CDE70525CBE7062501
:10553000C9E70725C7E70825C5E700BF00000258EF
:10554000004402582DE9F04F0022DFF82C81DFF8EB
:105550002C91DFF82CA1DFF82CB131FA02F301D144
:10556000BDE8F08F012303FA02FC1CEA01066DD0AE
:1055700022F0030402F003070F253E4B04F1B04470
:10558000BF00984205FA07F5D4F808E404F58064F2
:1055900005EA0E0E5CD003F5806398425AD003F5FD
:1055A0008063984258D003F58063984256D003F543
:1055B0008063984254D0404554D0484554D050451B
:1055C00054D0584554D003F5A05398420CBF09233A
:1055D0000A23BB40734519D14FF0B043D3F8807014
:1055E00027EA0607C3F88070D3F8847027EA060715
:1055F000C3F884705F6827EA06075F601F6827EAC0
:1056000006061E60A36823EA0503A3600325530072
:10561000046802F0070705FA03F30F26BF001C43D6
:10562000BE40046022FA05F400EB8404256A25EAF2
:1056300006062662C46824EA0304C460446824EAB7
:105640000C044460846824EA03038360013284E725
:105650000023BEE70123BCE70223BAE70323B8E730
:105660000423B6E70523B4E70623B2E70723B0E730
:105670000823AEE700000258001402580018025830
:10568000001C0258002002580AB1816170470904C9
:10569000FBE70000044B203053F82000034BC01AF6
:1056A00018BF0120704700BF00640258000300804B
:1056B00041F44071014B43F82010704700640258D8
:1056C00003689A69910701D500229A629A69D20704
:1056D00003D49A6942F001029A61704730B5039D84
:1056E000C1F3090104682B43606843EA0243054A99
:1056F0000B4342EA555223F0004320EA02000343E1
:10570000636030BDFF63FF032DE9F843036805467E
:10571000884617469C6914F0100479D010220026A0
:105720004FF02009DA612B689A69940636D40EB1DD
:10573000042439E0B8F1FF3FF6D0FEF7D7FFC01BD5
:10574000404502D8B8F1000FEDD12B68596895F8A3
:1057500042209869D2B200040AD5490408D4202A0C
:1057600006D05A6842F480425A60FEF7BFFF0746EF
:105770002B689C6914F02004D5D1FEF7B7FFC01B3D
:105780001928F5D96B6C012685F8404043F02003B9
:105790006B6485F8419085F84240E9E7002EC7D157
:1057A000202204240126DA612B689A69D00505D5E8
:1057B0004FF4807144F001040126D961510505D5EB
:1057C0004FF4806144F008040126D961920521D587
:1057D0004FF4007244F00204DA6128460126FFF714
:1057E0006FFF2A68536823F0FF7323F48B3323F48D
:1057F000FF7323F0010353606B6C1C4320236C6424
:1058000085F84130002385F8423085F8403003E0C8
:105810002646C9E7002EE0D13046BDE8F88370B5D2
:1058200004460D46164623689B699B0701D5002058
:1058300070BD324629462046FFF766FFA0B96A1CB4
:10584000F1D0FEF753FF801BA84201D8002DEAD10A
:10585000636C43F020036364202384F84130002309
:1058600084F8423084F840300120E1E72DE9F0412E
:10587000069F0446884616461D462268936938EA04
:1058800003030CBF01230023B34201D0002015E025
:105890006B1CF3D0FEF72AFFC01BA84201D8002DD5
:1058A000EBD1636C012043F020036364202384F870
:1058B0004130002384F8423084F84030BDE8F08164
:1058C0002DE9F3411E46184B054614460093F2B2EB
:1058D0004FF08073DDE90878FFF700FF2846424665
:1058E0003946FFF79CFF18B1012002B0BDE8F081F6
:1058F000012E2B680DD1E4B20022802128469C6243
:105900003B46CDF80080FFF7B1FF003818BF0120FB
:10591000EBE7220A394628469A624246FFF77FFFA4
:105920000028E1D12B68E6E7002000802DE9F34153
:105930001E46184B054614460093F2B20023DDE9DB
:105940000878FFF7CBFE284642463946FFF767FF47
:1059500018B1012002B0BDE8F081012E2B680DD1F5
:10596000E4B20022402128469C623B46CDF80080EC
:10597000FFF77CFF003818BF0120EBE7220A394609
:1059800028469A624246FFF74AFF0028E1D12B6879
:10599000E6E700BF0020008070B504460D461646BD
:1059A00023689B699B0601D5002070BD32462946BD
:1059B0002046FFF7A9FE90B9FEF798FE801BA8428B
:1059C00001D8002DECD1636C43F0200363642023E5
:1059D00084F84130002384F8423084F840300120BC
:1059E000E3E7704710B5044600284AD090F84130EC
:1059F00003F0FF021BB980F84020FFF7F2FF2423D9
:105A000084F8413023681A6822F001021A60626843
:105A100022F070621A619A6822F400429A60D4E916
:105A20000221012924D142F400429A605A680020E0
:105A300042F0007242F400425A60DA6822F40042F6
:105A4000DA60D4E904210A43A16942EA0122DA605A
:105A5000D4E907210A431A601A6842F001021A6069
:105A60002023606484F84130206384F8420010BD34
:105A700042F4044202299A60D8D14FF400625A607D
:105A8000D4E70120F3E7704710B5044698B10268E7
:105A9000242380F84130136823F001031360FFF7DB
:105AA000F2FF0020606484F8400084F84100206325
:105AB00084F8420010BD0120FCE72DE9F04F85B0CD
:105AC0009B4604460F46BDF83C309246DDF84090B8
:105AD000039390F84130202B40F0A3800E9B0BB134
